{"contracts/User.sol":{"UserNameStorage":{"abi":[{"inputs":[{"internalType":"string","name":"_userName","type":"string"}],"name":"addUserName","outputs":[],"stateMutability":"nonpayable","type":"function"},{"inputs":[],"name":"getUserNames","outputs":[{"internalType":"string[]","name":"","type":"string[]"}],"stateMutability":"view","type":"function"}],"evm":{"bytecode":{"linkReferences":{},"object":"608060405234801561001057600080fd5b506107aa806100206000396000f3fe608060405234801561001057600080fd5b50600436106100365760003560e01c80630f69620e1461003b5780637810cf2b14610057575b600080fd5b610055600480360381019061005091906102e0565b610075565b005b61005f6100ad565b60405161006c919061046a565b60405180910390f35b6000819080600181540180825580915050600190039060005260206000200160009091909190915090816100a991906106a2565b5050565b60606000805480602002602001604051908101604052809291908181526020016000905b8282101561017d5783829060005260206000200180546100f0906104bb565b80601f016020809104026020016040519081016040528092919081815260200182805461011c906104bb565b80156101695780601f1061013e57610100808354040283529160200191610169565b820191906000526020600020905b81548152906001019060200180831161014c57829003601f168201915b5050505050815260200190600101906100d1565b50505050905090565b6000604051905090565b600080fd5b600080fd5b600080fd5b600080fd5b6000601f19601f8301169050919050565b7f4e487b7100000000000000000000000000000000000000000000000000000000600052604160045260246000fd5b6101ed826101a4565b810181811067ffffffffffffffff8211171561020c5761020b6101b5565b5b80604052505050565b600061021f610186565b905061022b82826101e4565b919050565b600067ffffffffffffffff82111561024b5761024a6101b5565b5b610254826101a4565b9050602081019050919050565b82818337600083830152505050565b600061028361027e84610230565b610215565b90508281526020810184848401111561029f5761029e61019f565b5b6102aa848285610261565b509392505050565b600082601f8301126102c7576102c661019a565b5b81356102d7848260208601610270565b91505092915050565b6000602082840312156102f6576102f5610190565b5b600082013567ffffffffffffffff81111561031457610313610195565b5b610320848285016102b2565b91505092915050565b600081519050919050565b600082825260208201905092915050565b6000819050602082019050919050565b600081519050919050565b600082825260208201905092915050565b60005b8381101561038f578082015181840152602081019050610374565b60008484015250505050565b60006103a682610355565b6103b08185610360565b93506103c0818560208601610371565b6103c9816101a4565b840191505092915050565b60006103e0838361039b565b905092915050565b6000602082019050919050565b600061040082610329565b61040a8185610334565b93508360208202850161041c85610345565b8060005b85811015610458578484038952815161043985826103d4565b9450610444836103e8565b925060208a01995050600181019050610420565b50829750879550505050505092915050565b6000602082019050818103600083015261048481846103f5565b905092915050565b7f4e487b7100000000000000000000000000000000000000000000000000000000600052602260045260246000fd5b600060028204905060018216806104d357607f821691505b6020821081036104e6576104e561048c565b5b50919050565b60008190508160005260206000209050919050565b60006020601f8301049050919050565b600082821b905092915050565b60006008830261054e7fffffffffffffffffffffffffffffffffffffffffffffffffffffffffffffffff82610511565b6105588683610511565b95508019841693508086168417925050509392505050565b6000819050919050565b6000819050919050565b600061059f61059a61059584610570565b61057a565b610570565b9050919050565b6000819050919050565b6105b983610584565b6105cd6105c5826105a6565b84845461051e565b825550505050565b600090565b6105e26105d5565b6105ed8184846105b0565b505050565b5b81811015610611576106066000826105da565b6001810190506105f3565b5050565b601f82111561065657610627816104ec565b61063084610501565b8101602085101561063f578190505b61065361064b85610501565b8301826105f2565b50505b505050565b600082821c905092915050565b60006106796000198460080261065b565b1980831691505092915050565b60006106928383610668565b9150826002028217905092915050565b6106ab82610355565b67ffffffffffffffff8111156106c4576106c36101b5565b5b6106ce82546104bb565b6106d9828285610615565b600060209050601f83116001811461070c57600084156106fa578287015190505b6107048582610686565b86555061076c565b601f19841661071a866104ec565b60005b828110156107425784890151825560018201915060208501945060208101905061071d565b8683101561075f578489015161075b601f891682610668565b8355505b6001600288020188555050505b50505050505056fea26469706673582212201a1f41df8fff7354df31a00535f9439dca3f38549adedb60412e3e9a484cb61664736f6c63430008120033","opcodes":"PUSH1 0x80 PUSH1 0x40 MSTORE CALLVALUE DUP1 ISZERO PUSH2 0x10 JUMPI PUSH1 0x0 DUP1 REVERT JUMPDEST POP PUSH2 0x7AA DUP1 PUSH2 0x20 PUSH1 0x0 CODECOPY PUSH1 0x0 RETURN INVALID PUSH1 0x80 PUSH1 0x40 MSTORE CALLVALUE DUP1 ISZERO PUSH2 0x10 JUMPI PUSH1 0x0 DUP1 REVERT JUMPDEST POP PUSH1 0x4 CALLDATASIZE LT PUSH2 0x36 JUMPI PUSH1 0x0 CALLDATALOAD PUSH1 0xE0 SHR DUP1 PUSH4 0xF69620E EQ PUSH2 0x3B JUMPI DUP1 PUSH4 0x7810CF2B EQ PUSH2 0x57 JUMPI JUMPDEST PUSH1 0x0 DUP1 REVERT JUMPDEST PUSH2 0x55 PUSH1 0x4 DUP1 CALLDATASIZE SUB DUP2 ADD SWAP1 PUSH2 0x50 SWAP2 SWAP1 PUSH2 0x2E0 JUMP JUMPDEST PUSH2 0x75 JUMP JUMPDEST STOP JUMPDEST PUSH2 0x5F PUSH2 0xAD JUMP JUMPDEST PUSH1 0x40 MLOAD PUSH2 0x6C SWAP2 SWAP1 PUSH2 0x46A JUMP JUMPDEST PUSH1 0x40 MLOAD DUP1 SWAP2 SUB SWAP1 RETURN JUMPDEST PUSH1 0x0 DUP2 SWAP1 DUP1 PUSH1 0x1 DUP2 SLOAD ADD DUP1 DUP3 SSTORE DUP1 SWAP2 POP POP PUSH1 0x1 SWAP1 SUB SWAP1 PUSH1 0x0 MSTORE PUSH1 0x20 PUSH1 0x0 KECCAK256 ADD PUSH1 0x0 SWAP1 SWAP2 SWAP1 SWAP2 SWAP1 SWAP2 POP SWAP1 DUP2 PUSH2 0xA9 SWAP2 SWAP1 PUSH2 0x6A2 JUMP JUMPDEST POP POP JUMP JUMPDEST PUSH1 0x60 PUSH1 0x0 DUP1 SLOAD DUP1 PUSH1 0x20 MUL PUSH1 0x20 ADD PUSH1 0x40 MLOAD SWAP1 DUP2 ADD PUSH1 0x40 MSTORE DUP1 SWAP3 SWAP2 SWAP1 DUP2 DUP2 MSTORE PUSH1 0x20 ADD PUSH1 0x0 SWAP1 JUMPDEST DUP3 DUP3 LT ISZERO PUSH2 0x17D JUMPI DUP4 DUP3 SWAP1 PUSH1 0x0 MSTORE PUSH1 0x20 PUSH1 0x0 KECCAK256 ADD DUP1 SLOAD PUSH2 0xF0 SWAP1 PUSH2 0x4BB JUMP JUMPDEST DUP1 PUSH1 0x1F ADD PUSH1 0x20 DUP1 SWAP2 DIV MUL PUSH1 0x20 ADD PUSH1 0x40 MLOAD SWAP1 DUP2 ADD PUSH1 0x40 MSTORE DUP1 SWAP3 SWAP2 SWAP1 DUP2 DUP2 MSTORE PUSH1 0x20 ADD DUP3 DUP1 SLOAD PUSH2 0x11C SWAP1 PUSH2 0x4BB JUMP JUMPDEST DUP1 ISZERO PUSH2 0x169 JUMPI DUP1 PUSH1 0x1F LT PUSH2 0x13E JUMPI PUSH2 0x100 DUP1 DUP4 SLOAD DIV MUL DUP4 MSTORE SWAP2 PUSH1 0x20 ADD SWAP2 PUSH2 0x169 JUMP JUMPDEST DUP3 ADD SWAP2 SWAP1 PUSH1 0x0 MSTORE PUSH1 0x20 PUSH1 0x0 KECCAK256 SWAP1 JUMPDEST DUP2 SLOAD DUP2 MSTORE SWAP1 PUSH1 0x1 ADD SWAP1 PUSH1 0x20 ADD DUP1 DUP4 GT PUSH2 0x14C JUMPI DUP3 SWAP1 SUB PUSH1 0x1F AND DUP3 ADD SWAP2 JUMPDEST POP POP POP POP POP DUP2 MSTORE PUSH1 0x20 ADD SWAP1 PUSH1 0x1 ADD SWAP1 PUSH2 0xD1 JUMP JUMPDEST POP POP POP POP SWAP1 POP SWAP1 JUMP JUMPDEST PUSH1 0x0 PUSH1 0x40 MLOAD SWAP1 POP SWAP1 JUMP JUMPDEST PUSH1 0x0 DUP1 REVERT JUMPDEST PUSH1 0x0 DUP1 REVERT JUMPDEST PUSH1 0x0 DUP1 REVERT JUMPDEST PUSH1 0x0 DUP1 REVERT JUMPDEST PUSH1 0x0 PUSH1 0x1F NOT PUSH1 0x1F DUP4 ADD AND SWAP1 POP SWAP2 SWAP1 POP JUMP JUMPDEST PUSH32 0x4E487B7100000000000000000000000000000000000000000000000000000000 PUSH1 0x0 MSTORE PUSH1 0x41 PUSH1 0x4 MSTORE PUSH1 0x24 PUSH1 0x0 REVERT JUMPDEST PUSH2 0x1ED DUP3 PUSH2 0x1A4 JUMP JUMPDEST DUP2 ADD DUP2 DUP2 LT PUSH8 0xFFFFFFFFFFFFFFFF DUP3 GT OR ISZERO PUSH2 0x20C JUMPI PUSH2 0x20B PUSH2 0x1B5 JUMP JUMPDEST JUMPDEST DUP1 PUSH1 0x40 MSTORE POP POP POP JUMP JUMPDEST PUSH1 0x0 PUSH2 0x21F PUSH2 0x186 JUMP JUMPDEST SWAP1 POP PUSH2 0x22B DUP3 DUP3 PUSH2 0x1E4 JUMP JUMPDEST SWAP2 SWAP1 POP JUMP JUMPDEST PUSH1 0x0 PUSH8 0xFFFFFFFFFFFFFFFF DUP3 GT ISZERO PUSH2 0x24B JUMPI PUSH2 0x24A PUSH2 0x1B5 JUMP JUMPDEST JUMPDEST PUSH2 0x254 DUP3 PUSH2 0x1A4 JUMP JUMPDEST SWAP1 POP PUSH1 0x20 DUP2 ADD SWAP1 POP SWAP2 SWAP1 POP JUMP JUMPDEST DUP3 DUP2 DUP4 CALLDATACOPY PUSH1 0x0 DUP4 DUP4 ADD MSTORE POP POP POP JUMP JUMPDEST PUSH1 0x0 PUSH2 0x283 PUSH2 0x27E DUP5 PUSH2 0x230 JUMP JUMPDEST PUSH2 0x215 JUMP JUMPDEST SWAP1 POP DUP3 DUP2 MSTORE PUSH1 0x20 DUP2 ADD DUP5 DUP5 DUP5 ADD GT ISZERO PUSH2 0x29F JUMPI PUSH2 0x29E PUSH2 0x19F JUMP JUMPDEST JUMPDEST PUSH2 0x2AA DUP5 DUP3 DUP6 PUSH2 0x261 JUMP JUMPDEST POP SWAP4 SWAP3 POP POP POP JUMP JUMPDEST PUSH1 0x0 DUP3 PUSH1 0x1F DUP4 ADD SLT PUSH2 0x2C7 JUMPI PUSH2 0x2C6 PUSH2 0x19A JUMP JUMPDEST JUMPDEST DUP2 CALLDATALOAD PUSH2 0x2D7 DUP5 DUP3 PUSH1 0x20 DUP7 ADD PUSH2 0x270 JUMP JUMPDEST SWAP2 POP POP SWAP3 SWAP2 POP POP JUMP JUMPDEST PUSH1 0x0 PUSH1 0x20 DUP3 DUP5 SUB SLT ISZERO PUSH2 0x2F6 JUMPI PUSH2 0x2F5 PUSH2 0x190 JUMP JUMPDEST JUMPDEST PUSH1 0x0 DUP3 ADD CALLDATALOAD PUSH8 0xFFFFFFFFFFFFFFFF DUP2 GT ISZERO PUSH2 0x314 JUMPI PUSH2 0x313 PUSH2 0x195 JUMP JUMPDEST JUMPDEST PUSH2 0x320 DUP5 DUP3 DUP6 ADD PUSH2 0x2B2 JUMP JUMPDEST SWAP2 POP POP SWAP3 SWAP2 POP POP JUMP JUMPDEST PUSH1 0x0 DUP2 MLOAD SWAP1 POP SWAP2 SWAP1 POP JUMP JUMPDEST PUSH1 0x0 DUP3 DUP3 MSTORE PUSH1 0x20 DUP3 ADD SWAP1 POP SWAP3 SWAP2 POP POP JUMP JUMPDEST PUSH1 0x0 DUP2 SWAP1 POP PUSH1 0x20 DUP3 ADD SWAP1 POP SWAP2 SWAP1 POP JUMP JUMPDEST PUSH1 0x0 DUP2 MLOAD SWAP1 POP SWAP2 SWAP1 POP JUMP JUMPDEST PUSH1 0x0 DUP3 DUP3 MSTORE PUSH1 0x20 DUP3 ADD SWAP1 POP SWAP3 SWAP2 POP POP JUMP JUMPDEST PUSH1 0x0 JUMPDEST DUP4 DUP2 LT ISZERO PUSH2 0x38F JUMPI DUP1 DUP3 ADD MLOAD DUP2 DUP5 ADD MSTORE PUSH1 0x20 DUP2 ADD SWAP1 POP PUSH2 0x374 JUMP JUMPDEST PUSH1 0x0 DUP5 DUP5 ADD MSTORE POP POP POP POP JUMP JUMPDEST PUSH1 0x0 PUSH2 0x3A6 DUP3 PUSH2 0x355 JUMP JUMPDEST PUSH2 0x3B0 DUP2 DUP6 PUSH2 0x360 JUMP JUMPDEST SWAP4 POP PUSH2 0x3C0 DUP2 DUP6 PUSH1 0x20 DUP7 ADD PUSH2 0x371 JUMP JUMPDEST PUSH2 0x3C9 DUP2 PUSH2 0x1A4 JUMP JUMPDEST DUP5 ADD SWAP2 POP POP SWAP3 SWAP2 POP POP JUMP JUMPDEST PUSH1 0x0 PUSH2 0x3E0 DUP4 DUP4 PUSH2 0x39B JUMP JUMPDEST SWAP1 POP SWAP3 SWAP2 POP POP JUMP JUMPDEST PUSH1 0x0 PUSH1 0x20 DUP3 ADD SWAP1 POP SWAP2 SWAP1 POP JUMP JUMPDEST PUSH1 0x0 PUSH2 0x400 DUP3 PUSH2 0x329 JUMP JUMPDEST PUSH2 0x40A DUP2 DUP6 PUSH2 0x334 JUMP JUMPDEST SWAP4 POP DUP4 PUSH1 0x20 DUP3 MUL DUP6 ADD PUSH2 0x41C DUP6 PUSH2 0x345 JUMP JUMPDEST DUP1 PUSH1 0x0 JUMPDEST DUP6 DUP2 LT ISZERO PUSH2 0x458 JUMPI DUP5 DUP5 SUB DUP10 MSTORE DUP2 MLOAD PUSH2 0x439 DUP6 DUP3 PUSH2 0x3D4 JUMP JUMPDEST SWAP5 POP PUSH2 0x444 DUP4 PUSH2 0x3E8 JUMP JUMPDEST SWAP3 POP PUSH1 0x20 DUP11 ADD SWAP10 POP POP PUSH1 0x1 DUP2 ADD SWAP1 POP PUSH2 0x420 JUMP JUMPDEST POP DUP3 SWAP8 POP DUP8 SWAP6 POP POP POP POP POP POP SWAP3 SWAP2 POP POP JUMP JUMPDEST PUSH1 0x0 PUSH1 0x20 DUP3 ADD SWAP1 POP DUP2 DUP2 SUB PUSH1 0x0 DUP4 ADD MSTORE PUSH2 0x484 DUP2 DUP5 PUSH2 0x3F5 JUMP JUMPDEST SWAP1 POP SWAP3 SWAP2 POP POP JUMP JUMPDEST PUSH32 0x4E487B7100000000000000000000000000000000000000000000000000000000 PUSH1 0x0 MSTORE PUSH1 0x22 PUSH1 0x4 MSTORE PUSH1 0x24 PUSH1 0x0 REVERT JUMPDEST PUSH1 0x0 PUSH1 0x2 DUP3 DIV SWAP1 POP PUSH1 0x1 DUP3 AND DUP1 PUSH2 0x4D3 JUMPI PUSH1 0x7F DUP3 AND SWAP2 POP JUMPDEST PUSH1 0x20 DUP3 LT DUP2 SUB PUSH2 0x4E6 JUMPI PUSH2 0x4E5 PUSH2 0x48C JUMP JUMPDEST JUMPDEST POP SWAP2 SWAP1 POP JUMP JUMPDEST PUSH1 0x0 DUP2 SWAP1 POP DUP2 PUSH1 0x0 MSTORE PUSH1 0x20 PUSH1 0x0 KECCAK256 SWAP1 POP SWAP2 SWAP1 POP JUMP JUMPDEST PUSH1 0x0 PUSH1 0x20 PUSH1 0x1F DUP4 ADD DIV SWAP1 POP SWAP2 SWAP1 POP JUMP JUMPDEST PUSH1 0x0 DUP3 DUP3 SHL SWAP1 POP SWAP3 SWAP2 POP POP JUMP JUMPDEST PUSH1 0x0 PUSH1 0x8 DUP4 MUL PUSH2 0x54E PUSH32 0xFFFFFFFFFFFFFFFFFFFFFFFFFFFFFFFFFFFFFFFFFFFFFFFFFFFFFFFFFFFFFFFF DUP3 PUSH2 0x511 JUMP JUMPDEST PUSH2 0x558 DUP7 DUP4 PUSH2 0x511 JUMP JUMPDEST SWAP6 POP DUP1 NOT DUP5 AND SWAP4 POP DUP1 DUP7 AND DUP5 OR SWAP3 POP POP POP SWAP4 SWAP3 POP POP POP JUMP JUMPDEST PUSH1 0x0 DUP2 SWAP1 POP SWAP2 SWAP1 POP JUMP JUMPDEST PUSH1 0x0 DUP2 SWAP1 POP SWAP2 SWAP1 POP JUMP JUMPDEST PUSH1 0x0 PUSH2 0x59F PUSH2 0x59A PUSH2 0x595 DUP5 PUSH2 0x570 JUMP JUMPDEST PUSH2 0x57A JUMP JUMPDEST PUSH2 0x570 JUMP JUMPDEST SWAP1 POP SWAP2 SWAP1 POP JUMP JUMPDEST PUSH1 0x0 DUP2 SWAP1 POP SWAP2 SWAP1 POP JUMP JUMPDEST PUSH2 0x5B9 DUP4 PUSH2 0x584 JUMP JUMPDEST PUSH2 0x5CD PUSH2 0x5C5 DUP3 PUSH2 0x5A6 JUMP JUMPDEST DUP5 DUP5 SLOAD PUSH2 0x51E JUMP JUMPDEST DUP3 SSTORE POP POP POP POP JUMP JUMPDEST PUSH1 0x0 SWAP1 JUMP JUMPDEST PUSH2 0x5E2 PUSH2 0x5D5 JUMP JUMPDEST PUSH2 0x5ED DUP2 DUP5 DUP5 PUSH2 0x5B0 JUMP JUMPDEST POP POP POP JUMP JUMPDEST JUMPDEST DUP2 DUP2 LT ISZERO PUSH2 0x611 JUMPI PUSH2 0x606 PUSH1 0x0 DUP3 PUSH2 0x5DA JUMP JUMPDEST PUSH1 0x1 DUP2 ADD SWAP1 POP PUSH2 0x5F3 JUMP JUMPDEST POP POP JUMP JUMPDEST PUSH1 0x1F DUP3 GT ISZERO PUSH2 0x656 JUMPI PUSH2 0x627 DUP2 PUSH2 0x4EC JUMP JUMPDEST PUSH2 0x630 DUP5 PUSH2 0x501 JUMP JUMPDEST DUP2 ADD PUSH1 0x20 DUP6 LT ISZERO PUSH2 0x63F JUMPI DUP2 SWAP1 POP JUMPDEST PUSH2 0x653 PUSH2 0x64B DUP6 PUSH2 0x501 JUMP JUMPDEST DUP4 ADD DUP3 PUSH2 0x5F2 JUMP JUMPDEST POP POP JUMPDEST POP POP POP JUMP JUMPDEST PUSH1 0x0 DUP3 DUP3 SHR SWAP1 POP SWAP3 SWAP2 POP POP JUMP JUMPDEST PUSH1 0x0 PUSH2 0x679 PUSH1 0x0 NOT DUP5 PUSH1 0x8 MUL PUSH2 0x65B JUMP JUMPDEST NOT DUP1 DUP4 AND SWAP2 POP POP SWAP3 SWAP2 POP POP JUMP JUMPDEST PUSH1 0x0 PUSH2 0x692 DUP4 DUP4 PUSH2 0x668 JUMP JUMPDEST SWAP2 POP DUP3 PUSH1 0x2 MUL DUP3 OR SWAP1 POP SWAP3 SWAP2 POP POP JUMP JUMPDEST PUSH2 0x6AB DUP3 PUSH2 0x355 JUMP JUMPDEST PUSH8 0xFFFFFFFFFFFFFFFF DUP2 GT ISZERO PUSH2 0x6C4 JUMPI PUSH2 0x6C3 PUSH2 0x1B5 JUMP JUMPDEST JUMPDEST PUSH2 0x6CE DUP3 SLOAD PUSH2 0x4BB JUMP JUMPDEST PUSH2 0x6D9 DUP3 DUP3 DUP6 PUSH2 0x615 JUMP JUMPDEST PUSH1 0x0 PUSH1 0x20 SWAP1 POP PUSH1 0x1F DUP4 GT PUSH1 0x1 DUP2 EQ PUSH2 0x70C JUMPI PUSH1 0x0 DUP5 ISZERO PUSH2 0x6FA JUMPI DUP3 DUP8 ADD MLOAD SWAP1 POP JUMPDEST PUSH2 0x704 DUP6 DUP3 PUSH2 0x686 JUMP JUMPDEST DUP7 SSTORE POP PUSH2 0x76C JUMP JUMPDEST PUSH1 0x1F NOT DUP5 AND PUSH2 0x71A DUP7 PUSH2 0x4EC JUMP JUMPDEST PUSH1 0x0 JUMPDEST DUP3 DUP2 LT ISZERO PUSH2 0x742 JUMPI DUP5 DUP10 ADD MLOAD DUP3 SSTORE PUSH1 0x1 DUP3 ADD SWAP2 POP PUSH1 0x20 DUP6 ADD SWAP5 POP PUSH1 0x20 DUP2 ADD SWAP1 POP PUSH2 0x71D JUMP JUMPDEST DUP7 DUP4 LT ISZERO PUSH2 0x75F JUMPI DUP5 DUP10 ADD MLOAD PUSH2 0x75B PUSH1 0x1F DUP10 AND DUP3 PUSH2 0x668 JUMP JUMPDEST DUP4 SSTORE POP JUMPDEST PUSH1 0x1 PUSH1 0x2 DUP9 MUL ADD DUP9 SSTORE POP POP POP JUMPDEST POP POP POP POP POP POP JUMP INVALID LOG2 PUSH5 0x6970667358 0x22 SLT KECCAK256 BYTE 0x1F COINBASE 0xDF DUP16 SELFDESTRUCT PUSH20 0x54DF31A00535F9439DCA3F38549ADEDB60412E3E SWAP11 BASEFEE 0x4C 0xB6 AND PUSH5 0x736F6C6343 STOP ADDMOD SLT STOP CALLER "},"methodIdentifiers":{"addUserName(string)":"0f69620e","getUserNames()":"7810cf2b"}}}}}