{
  "_format": "hh-sol-artifact-1",
  "contractName": "UserNameStorage",
  "sourceName": "contracts/User.sol",
  "abi": [
    {
      "inputs": [
        {
          "internalType": "string",
          "name": "_userName",
          "type": "string"
        }
      ],
      "name": "addUserName",
      "outputs": [],
      "stateMutability": "nonpayable",
      "type": "function"
    },
    {
      "inputs": [],
      "name": "getUserNames",
      "outputs": [
        {
          "internalType": "string[]",
          "name": "",
          "type": "string[]"
        }
      ],
      "stateMutability": "view",
      "type": "function"
    }
  ],
  "bytecode": "0x608060405234801561001057600080fd5b506107aa806100206000396000f3fe608060405234801561001057600080fd5b50600436106100365760003560e01c80630f69620e1461003b5780637810cf2b14610057575b600080fd5b610055600480360381019061005091906102e0565b610075565b005b61005f6100ad565b60405161006c919061046a565b60405180910390f35b6000819080600181540180825580915050600190039060005260206000200160009091909190915090816100a991906106a2565b5050565b60606000805480602002602001604051908101604052809291908181526020016000905b8282101561017d5783829060005260206000200180546100f0906104bb565b80601f016020809104026020016040519081016040528092919081815260200182805461011c906104bb565b80156101695780601f1061013e57610100808354040283529160200191610169565b820191906000526020600020905b81548152906001019060200180831161014c57829003601f168201915b5050505050815260200190600101906100d1565b50505050905090565b6000604051905090565b600080fd5b600080fd5b600080fd5b600080fd5b6000601f19601f8301169050919050565b7f4e487b7100000000000000000000000000000000000000000000000000000000600052604160045260246000fd5b6101ed826101a4565b810181811067ffffffffffffffff8211171561020c5761020b6101b5565b5b80604052505050565b600061021f610186565b905061022b82826101e4565b919050565b600067ffffffffffffffff82111561024b5761024a6101b5565b5b610254826101a4565b9050602081019050919050565b82818337600083830152505050565b600061028361027e84610230565b610215565b90508281526020810184848401111561029f5761029e61019f565b5b6102aa848285610261565b509392505050565b600082601f8301126102c7576102c661019a565b5b81356102d7848260208601610270565b91505092915050565b6000602082840312156102f6576102f5610190565b5b600082013567ffffffffffffffff81111561031457610313610195565b5b610320848285016102b2565b91505092915050565b600081519050919050565b600082825260208201905092915050565b6000819050602082019050919050565b600081519050919050565b600082825260208201905092915050565b60005b8381101561038f578082015181840152602081019050610374565b60008484015250505050565b60006103a682610355565b6103b08185610360565b93506103c0818560208601610371565b6103c9816101a4565b840191505092915050565b60006103e0838361039b565b905092915050565b6000602082019050919050565b600061040082610329565b61040a8185610334565b93508360208202850161041c85610345565b8060005b85811015610458578484038952815161043985826103d4565b9450610444836103e8565b925060208a01995050600181019050610420565b50829750879550505050505092915050565b6000602082019050818103600083015261048481846103f5565b905092915050565b7f4e487b7100000000000000000000000000000000000000000000000000000000600052602260045260246000fd5b600060028204905060018216806104d357607f821691505b6020821081036104e6576104e561048c565b5b50919050565b60008190508160005260206000209050919050565b60006020601f8301049050919050565b600082821b905092915050565b60006008830261054e7fffffffffffffffffffffffffffffffffffffffffffffffffffffffffffffffff82610511565b6105588683610511565b95508019841693508086168417925050509392505050565b6000819050919050565b6000819050919050565b600061059f61059a61059584610570565b61057a565b610570565b9050919050565b6000819050919050565b6105b983610584565b6105cd6105c5826105a6565b84845461051e565b825550505050565b600090565b6105e26105d5565b6105ed8184846105b0565b505050565b5b81811015610611576106066000826105da565b6001810190506105f3565b5050565b601f82111561065657610627816104ec565b61063084610501565b8101602085101561063f578190505b61065361064b85610501565b8301826105f2565b50505b505050565b600082821c905092915050565b60006106796000198460080261065b565b1980831691505092915050565b60006106928383610668565b9150826002028217905092915050565b6106ab82610355565b67ffffffffffffffff8111156106c4576106c36101b5565b5b6106ce82546104bb565b6106d9828285610615565b600060209050601f83116001811461070c57600084156106fa578287015190505b6107048582610686565b86555061076c565b601f19841661071a866104ec565b60005b828110156107425784890151825560018201915060208501945060208101905061071d565b8683101561075f578489015161075b601f891682610668565b8355505b6001600288020188555050505b50505050505056fea26469706673582212201a1f41df8fff7354df31a00535f9439dca3f38549adedb60412e3e9a484cb61664736f6c63430008120033",
  "linkReferences": {},
  "deployedLinkReferences": {}
}